:020000040800F2
:10000000000400204901000861030008B70200084D
:100010005D03000891010008D504000800000000FD
:100020000000000000000000000000008503000840
:100030009501000800000000630300087104000837
:100040006301000863010008630100086301000800
:1000500063010008630100086301000863010008F0
:1000600063010008630100086301000863010008E0
:1000700063010008630100086301000863010008D0
:1000800063010008630100086301000863010008C0
:1000900063010008630100086301000863010008B0
:1000A00063010008630100086301000863010008A0
:1000B0006301000863010008630100086301000890
:1000C0006301000863010008630100086301000880
:1000D0006301000863010008630100086301000870
:1000E0006301000863010008630100086301000860
:1000F0006301000863010008630100086301000850
:10010000630100086301000863010008630100083F
:10011000630100086301000863010008630100082F
:10012000630100086301000863010008630100081F
:10013000DFF810D000F01AF800480047F904000872
:10014000AFF30080000400200648804706480047BF
:10015000FEE7FEE7FEE7FEE7FEE7FEE7FEE7FEE777
:10016000FEE7FEE77504000831010008064C074D64
:1001700006E0E06840F0010394E807009847103477
:10018000AC42F6D3FFF7D8FF340500084405000859
:1001900000BFFEE7704700E0401E0028FCD170471A
:1001A0002DE9F0410246002500260020002300240E
:1001B000002791F803C00CF00F0591F803C00CF074
:1001C000100CBCF1000F03D091F802C04CEA0505F9
:1001D00091F800C0BCF1000F31D0146800202BE072
:1001E0004FF0010C0CFA00F3B1F800C00CEA030662
:1001F0009E4220D183004FF00F0C0CFA03F7BC4352
:1002000005FA03FC4CEA040491F803C0BCF1280F82
:1002100006D14FF0010C0CFA00FCC2F814C00AE041
:1002200091F803C0BCF1480F05D14FF0010C0CFA56
:1002300000FCC2F810C0401C0828D1D31460B1F8EB
:1002400000C0BCF1FF0F34DD546800202EE000F147
:10025000080C4FF0010808FA0CF3B1F800C00CEAE2
:1002600003069E4221D183004FF00F0C0CFA03F7D6
:10027000BC4305FA03FC4CEA040491F803C0BCF14A
:10028000280F05D100F1080C08FA0CF8C2F8148008
:1002900091F803C0BCF1480F07D100F1080C4FF0F2
:1002A000010808FA0CF8C2F81080401C0828CED3C8
:1002B0005460BDE8F08100BFFEE7000008B50121F1
:1002C000042000F04FF804208DF803000120ADF861
:1002D000000069460148FFF763FF08BD00080140C0
:1002E00008B50121102000F03DF804208DF803002E
:1002F000C002ADF8000069460148FFF751FF08BD94
:100300000010014008B50121082000F02BF8102052
:100310008DF803000120ADF8000003208DF80200E5
:1003200069460248FFF73CFF08BD0000000C014091
:1003300008B50121082000F015F810208DF8030001
:100340002020ADF8000003208DF802006946024825
:10035000FFF726FF08BD0000000C014000BFFEE7CC
:100360007047704729B1064A92690243044B9A616B
:1003700004E0034A92698243014B9A61704700008E
:1003800000100240704710B500F002F810BD0000E8
:100390000CB50020019000903348006840F4803094
:1003A0003149086000BF3048006800F40030009018
:1003B0000198401C0190009818B90198B0F5A06F01
:1003C000F1D12948006800F4003010B101200090FC
:1003D00001E0002000900098012843D123480068E4
:1003E00040F01000214908600846006820F0030032
:1003F00008600846006840F0020008601A4840683B
:10040000194948600846406848600846406840F41A
:10041000806048600846406820F47C1048600846C8
:10042000406840F4E81048600846006840F080707A
:10043000086000BF0C48006800F000700028F9D088
:100440000948406820F003000749486008464068B2
:1004500040F00200486000BF0348406800F00C0014
:100460000828F9D10CBD0000001002400020024015
:100470007047000010B51348006840F001001149B2
:10048000086008464068104908400E494860084620
:1004900000680E4908400B4908600846006820F4CF
:1004A000802008600846406820F4FE0048604FF451
:1004B0001F008860FFF767FF4FF000600449086085
:1004C00010BD0000001002400000FFF8FFFFF6FE24
:1004D00008ED00E000BFFEE702E008C8121F08C1F7
:1004E000002AFAD170477047002001E001C1121FB5
:1004F000002AFBD170470000FFF7E0FEFFF7F0FE97
:10050000FFF700FFFFF714FF0EE001200749086026
:100510006FF07F40FFF73FFE00200549C1F88001E2
:100520006FF07F40FFF737FEEFE700008081214248
:100530000080214244050008000000200004000063
:04054000E8040008C3
:0400000508000131BD
:00000001FF
