:020000040800F2
:100000000004002049010008D10300087103000822
:10001000CD030008910100087D06000800000000E3
:100020000000000000000000000000002D05000896
:100030009501000800000000D3030008190600081D
:100040006301000863010008630100086301000800
:1000500063010008630100086301000863010008F0
:1000600063010008630100086301000863010008E0
:1000700063010008630100086301000863010008D0
:1000800063010008630100086301000863010008C0
:1000900063010008630100086301000863010008B0
:1000A00063010008630100086301000863010008A0
:1000B0006301000863010008630100086301000890
:1000C0006301000863010008630100086301000880
:1000D0006301000863010008630100086301000870
:1000E0006301000863010008630100086301000860
:1000F0006301000863010008630100086301000850
:10010000630100086301000863010008630100083F
:10011000630100086301000863010008630100082F
:10012000630100086301000863010008630100081F
:10013000DFF810D000F01AF800480047A1060008C8
:10014000AFF30080000400200648804706480047BF
:10015000FEE7FEE7FEE7FEE7FEE7FEE7FEE7FEE777
:10016000FEE7FEE71D06000831010008064C074DBA
:1001700006E0E06840F0010394E807009847103477
:10018000AC42F6D3FFF7D8FFE0060008F0060008FF
:1001900000BFFEE7704700E0401E0028FCD170471A
:1001A0000549096821F01001034A116011460968E8
:1001B000014311607047000000200240014600200A
:1001C000034A106800F038000843106070470000D0
:1001D000002002402DE9F0410246002500260020C3
:1001E00000230024002791F803C00CF00F0591F8BC
:1001F00003C00CF0100CBCF1000F03D091F802C04A
:100200004CEA050591F800C0BCF1000F31D014682C
:1002100000202BE04FF0010C0CFA00F3B1F800C005
:100220000CEA03069E4220D183004FF00F0C0CFA1B
:1002300003F7BC4305FA03FC4CEA040491F803C03D
:10024000BCF1280F06D14FF0010C0CFA00FCC2F8EB
:1002500014C00AE091F803C0BCF1480F05D14FF07B
:10026000010C0CFA00FCC2F810C0401C0828D1D3C5
:100270001460B1F800C0BCF1FF0F34DD54680020F9
:100280002EE000F1080C4FF0010808FA0CF3B1F869
:1002900000C00CEA03069E4221D183004FF00F0CF0
:1002A0000CFA03F7BC4305FA03FC4CEA040491F88A
:1002B00003C0BCF1280F05D100F1080C08FA0CF8B6
:1002C000C2F8148091F803C0BCF1480F07D100F1C7
:1002D000080C4FF0010808FA0CF8C2F81080401C16
:1002E0000828CED35460BDE8F081416170470161B8
:1002F000704700001CB5044600200190009000F0FB
:1003000079F8012000F0CEF81848006800F00200EB
:1003100001900198022825D11020FFF741FF02200B
:10032000FFF74CFF002000F0B1F84FF4806000F0C0
:10033000C5F8002000F0CEF82146002000F0DCF8DF
:10034000012000F0D3F800BF392000F079F8002830
:10035000FAD0022000F0DEF800BF00F08FF8082885
:10036000FBD101E000BFFEE71CBD00000010024011
:1003700000BFFEE708B50121082000F02BF810208F
:100380008DF803002020ADF8000003208DF8020056
:1003900069460248FFF71EFF08BD0000000C01403F
:1003A00008B50121042000F015F84FF48070ADF875
:1003B000000018208DF8030003208DF80200694624
:1003C0000148FFF707FF08BD0008014000BFFEE736
:1003D0007047704729B1064A92690243044B9A61FB
:1003E00004E0034A92698243014B9A61704700001E
:1003F000001002400F48006840F001000D490860FD
:10040000084640680C4908400A49486008460068A8
:100410000A490840074908600846006820F480201F
:1004200008600846406820F4FE0048604FF41F0052
:1004300088607047001002400000FFF8FFFFF6FEE2
:1004400010B501460022002300204A11012A02D1E2
:10045000094C236806E0022A02D1074C236A01E016
:10046000054C636A01F01F02012494401C400CB14A
:10047000012000E0002010BD00100240024840684A
:1004800000F00C0070470000001002400146002000
:10049000034A506820F0F0000843506070470000A5
:1004A000001002400149086070470000000042420D
:1004B0000149C87170470000001002400146002049
:1004C000034A506820F4E060084350607047000021
:1004D0000010024001460020034A506820F460509A
:1004E00040EAC100506070470010024001490866B0
:1004F000704700000000424202460020044B58684A
:1005000020F47C1042EA01031843014B5860704705
:100510000010024001460020034A506820F003000A
:10052000084350607047000000100240704710B54B
:1005300000F002F810BD00000CB500200190009002
:100540003348006840F480303149086000BF3048CB
:10055000006800F4003000900198401C0190009861
:1005600018B90198B0F5A06FF1D12948006800F4DE
:10057000003010B10120009001E0002000900098B0
:10058000012843D12348006840F010002149086049
:100590000846006820F0030008600846006840F044
:1005A000020008601A4840681949486008464068D7
:1005B00048600846406840F48060486008464068EB
:1005C00020F47C1048600846406840F4E810486019
:1005D0000846006840F08070086000BF0C48006862
:1005E00000F000700028F9D00948406820F00300AE
:1005F000074948600846406840F00200486000BF74
:100600000348406800F00C000828F9D10CBD000038
:1006100000100240002002407047000010B513484F
:10062000006840F001001149086008464068104920
:1006300008400E494860084600680E4908400B49CA
:1006400008600846006820F480200860084640687A
:1006500020F4FE0048604FF41F008860FFF767FF3A
:100660004FF000600449086010BD00000010024017
:100670000000FFF8FFFFF6FE08ED00E000BFFEE718
:1006800002E008C8121F08C1002AFAD1704770475B
:10069000002001E001C1121F002AFBD170470000B9
:1006A0004FF40020FFF726FEFFF77AFE0420FFF745
:1006B000FFFEFFF75FFE0DE020210748FFF715FE64
:1006C0000648FFF768FD20210348FFF710FE0348A6
:1006D000FFF761FDF0E70000000C0140FFFF0F0095
:1006E000F00600080000002000040000900600084A
:0400000508000131BD
:00000001FF
