:020000040800F2
:1000000000040020450100084D0100084F010008D0
:1000100051010008530100085501000800000000CC
:100020000000000000000000000000005701000870
:1000300059010008000000005B0100085D01000894
:100040005F0100085F0100085F0100085F01000810
:100050005F0100085F0100085F0100085F01000800
:100060005F0100085F0100085F0100085F010008F0
:100070005F0100085F0100085F0100085F010008E0
:100080005F0100085F0100085F0100085F010008D0
:100090005F0100085F0100085F0100085F010008C0
:1000A0005F0100085F0100085F0100085F010008B0
:1000B0005F0100085F0100085F0100085F010008A0
:1000C0005F0100085F0100085F0100085F01000890
:1000D0005F0100085F0100085F0100085F01000880
:1000E0005F0100085F0100085F0100085F01000870
:1000F0005F0100085F0100085F0100085F01000860
:100100005F0100085F0100085F0100085F0100084F
:100110005F0100085F0100085F0100085F0100083F
:100120005F0100085F0100085F0100085F0100082F
:10013000DFF80CD000F018F8004800477102000802
:10014000000400200648804706480047FEE7FEE717
:10015000FEE7FEE7FEE7FEE7FEE7FEE7FEE7FEE777
:100160006D020008310100081CB5094800900948DB
:1001700001900546009C06E0E06840F0010394E829
:10018000070098471034AC42F6D3FFF7D5FF0000C4
:10019000D0020008E0020008CA7802F00F0CD30673
:1001A00044BF8B784CEA030C2DE9F04709880B0615
:1001B00025D082465AF8145B00F1100E00264FF04D
:1001C00001094FF00F08002706E000BF1C6001374F
:1001D000082F06F1040611D009FA07F40C42F6D0F4
:1001E00008FA06F325EA03030CFA06F51D43282A4C
:1001F0005346EBD0482AEAD17346E7E70560B1F5EC
:10020000807F38BFBDE8F087436800F1100E00F131
:10021000140A082500264FF001094FF00F0805E0E9
:1002200027600135102D06F1040610D009FA05F7F4
:100230000F42F6D008FA06F4A3430CFA06F423435F
:10024000282A5446ECD0482AEBD17446E8E74360AC
:10025000BDE8F08740F61040C4F20100016070472D
:1002600040F61440C4F2010001607047704700007E
:1002700010B582B041F21800C4F20200016840F6E5
:10028000004441F00801C4F201040160204601214C
:10029000FFF7E0FF20460121FFF7E2FF0120C1F256
:1002A0000300019001A92046FFF776FF002002B06D
:1002B00010BD02E008C8121F08C1002AFAD1704719
:1002C0007047002001E001C1121F002AFBD17047D6
:1002D000E00200080000002000040000C202000844
:0400000508000131BD
:00000001FF
