:020000040800F2
:1000000000040020450100084D0100084F010008D0
:1000100051010008530100085501000800000000CC
:100020000000000000000000000000005701000870
:1000300059010008000000005B0100085D01000894
:100040005F0100085F0100085F0100085F01000810
:100050005F0100085F0100085F0100085F01000800
:100060005F0100085F0100085F0100085F010008F0
:100070005F0100085F0100085F0100085F010008E0
:100080005F0100085F0100085F0100085F010008D0
:100090005F0100085F0100085F0100085F010008C0
:1000A0005F0100085F0100085F0100085F010008B0
:1000B0005F0100085F0100085F0100085F010008A0
:1000C0005F0100085F0100085F0100085F01000890
:1000D0005F0100085F0100085F0100085F01000880
:1000E0005F0100085F0100085F0100085F01000870
:1000F0005F0100085F0100085F0100085F01000860
:100100005F0100085F0100085F0100085F0100084F
:100110005F0100085F0100085F0100085F0100083F
:100120005F0100085F0100085F0100085F0100082F
:10013000DFF80CD000F018F8004800479D010008D7
:10014000000400200648804706480047FEE7FEE717
:10015000FEE7FEE7FEE7FEE7FEE7FEE7FEE7FEE777
:1001600099010008310100081CB5094800900948B0
:1001700001900546009C06E0E06840F0010394E829
:10018000070098471034AC42F6D3FFF7D5FF0000C4
:10019000D0020008E00200087047000083B041F27E
:1001A0001801C4F202010A6840F6004042F0080259
:1001B00044F2544C44F2444EC4F201000A6000215F
:1001C0000B22C4F2444CC4F2544E4FF0443301E0CD
:1001D0000360C1600468C56844F00104046025F050
:1001E0000104C4600091009C312C15D9C160C0F895
:1001F00000C00091009C312C2AD9C160C0F800E0F9
:100200000091009C312C3FD9E2E700BF009C0134F3
:100210000094009C322CE9D20291029CE4087C2CD0
:1002200007D9F3E7029C01340294029CB4F57A7F6B
:10023000ECD20192019C002CF4D0019C013C019471
:10024000F8E700BF009C01340094009C322CD4D20B
:100250000291029CE4087C2C07D9F3E7029C01344C
:100260000294029CB4F57A7FECD20192019C002C9E
:10027000F4D0019C013C0194F8E700BF009C0134DC
:100280000094009C322CA3D20291029CE4087C2CA6
:1002900007D9F3E7029C01340294029CB4F57A7FFB
:1002A000ECD20192019C002CF4D0019C013C019401
:1002B000F8E702E008C8121F08C1002AFAD1704707
:1002C0007047002001E001C1121F002AFBD17047D6
:1002D000E00200080000002000040000C202000844
:0400000508000131BD
:00000001FF
