:020000040800F2
:1000000000040020490100085101000853010008C4
:1000100055010008570100085901000800000000C0
:100020000000000000000000000000005B0100086C
:100030005D010008000000005F0100086101000888
:100040006301000863010008630100086301000800
:1000500063010008630100086301000863010008F0
:1000600063010008630100086301000863010008E0
:1000700063010008630100086301000863010008D0
:1000800063010008630100086301000863010008C0
:1000900063010008630100086301000863010008B0
:1000A00063010008630100086301000863010008A0
:1000B0006301000863010008630100086301000890
:1000C0006301000863010008630100086301000880
:1000D0006301000863010008630100086301000870
:1000E0006301000863010008630100086301000860
:1000F0006301000863010008630100086301000850
:10010000630100086301000863010008630100083F
:10011000630100086301000863010008630100082F
:10012000630100086301000863010008630100081F
:10013000DFF810D000F01AF80048004779020008F4
:10014000AFF30080000400200648804706480047BF
:10015000FEE7FEE7FEE7FEE7FEE7FEE7FEE7FEE777
:10016000FEE7FEE75902000831010008064C074D82
:1001700006E0E06840F0010394E807009847103477
:10018000AC42F6D3FFF7D8FFCC020008DC0200082F
:1001900000E0401E0028FCD170472DE9F04100220C
:1001A000CC7804F00F03E40601D58C7823430C7857
:1001B0004FF00F0714F0FF0F4FF0010C1CD0056833
:1001C0000CFA02F40E882640A64211D1960007FAD6
:1001D00006F825EA080503FA06F848EA0505CE7888
:1001E000282E02D0482E02D002E0446100E00461D3
:1001F000521C082AE4D305600A88FF2A1ED94568E4
:10020000002202F108060CFA06F40E882640A642E7
:1002100010D1960007FA06F825EA080503FA06F851
:1002200048EA0505CE78282E00D14461CE78482EC4
:1002300000D10461521C082AE3D34560BDE8F08177
:100240000148016070470000100C01400148016046
:1002500070470000140C0140704702E008C8121FEC
:1002600008C1002AFAD170477047002001E001C19F
:10027000121F002AFBD1704708B51148816941F06F
:10028000080181610220ADF8000010208DF8030004
:1002900003208DF802000B4C69462046FFF77DFFD6
:1002A000094D02212046FFF7CBFF2846FFF770FFDC
:1002B00002212046FFF7CAFF2846FFF769FFF0E753
:1002C00000100240000C014040420F00DC02000818
:0C02D00000000020000400006A0200088A
:0400000508000131BD
:00000001FF
