:020000040800F2
:1000000000040020450100084D0100084F010008D0
:1000100051010008530100085501000800000000CC
:100020000000000000000000000000005701000870
:1000300059010008000000005B0100085D01000894
:100040005F0100085F0100085F0100085F01000810
:100050005F0100085F0100085F0100085F01000800
:100060005F0100085F0100085F0100085F010008F0
:100070005F0100085F0100085F0100085F010008E0
:100080005F0100085F0100085F0100085F010008D0
:100090005F0100085F0100085F0100085F010008C0
:1000A0005F0100085F0100085F0100085F010008B0
:1000B0005F0100085F0100085F0100085F010008A0
:1000C0005F0100085F0100085F0100085F01000890
:1000D0005F0100085F0100085F0100085F01000880
:1000E0005F0100085F0100085F0100085F01000870
:1000F0005F0100085F0100085F0100085F01000860
:100100005F0100085F0100085F0100085F0100084F
:100110005F0100085F0100085F0100085F0100083F
:100120005F0100085F0100085F0100085F0100082F
:10013000DFF80CD000F018F8004800479D010008D7
:10014000000400200648804706480047FEE7FEE717
:10015000FEE7FEE7FEE7FEE7FEE7FEE7FEE7FEE777
:1001600099010008310100081CB5094800900948B0
:1001700001900546009C06E0E06840F0010394E829
:10018000070098471034AC42F6D3FFF7D5FF0000C4
:10019000C4020008D40200087047000083B041F296
:1001A0001801C4F202010A6840F6004042F0080259
:1001B00044F2544C44F2444EC4F201000A6000215F
:1001C0000B22C4F2444CC4F2544E4FF0443301E0CD
:1001D0000360C16001610091009C312C16D9C0F808
:1001E00000C0C0E903110091009C312C2AD9C0F84D
:1001F00000E0C0E903110091009C312C3ED9E7E7F3
:10020000009C01340094009C322CE8D20291029CA4
:10021000E4087C2C07D9F3E7029C01340294029C89
:10022000B4F57A7FECD20192019C002CF4D0019CB1
:10023000013C0194F8E700BF009C01340094009C4D
:10024000322CD4D20291029CE4087C2C07D9F3E72B
:10025000029C01340294029CB4F57A7FECD20192A4
:10026000019C002CF4D0019C013C0194F8E700BFF4
:10027000009C01340094009C322CA9D20291029C73
:10028000E4087C2C07D9F3E7029C01340294029C19
:10029000B4F57A7FECD20192019C002CF4D0019C41
:1002A000013C0194F8E702E008C8121F08C1002AC7
:1002B000FAD170477047002001E001C1121F002AE7
:1002C000FBD17047D40200080000002000040000A9
:0402D000B60200086A
:0400000508000131BD
:00000001FF
